:100000000C94AE010C94D6010C94D6010C94D6013C
:100010000C94D6010C94D6010C94D6010C94D60104
:100020000C94D6010C94D6010C94D6010C94D601F4
:100030000C94D6010C94D6010C94D6010C94D601E4
:100040000C94EB0D0C94D6010C94CC030C94A603E9
:100050000C94D6010C94D6010C94D6010C94D601C4
:100060000C94C1040C94D6010000000000001F0095
:1000700014001F001F0015000A001F0011001100CE
:100080001F0011000E001F00150011001F001400BA
:1000900010001F00110017001F0004001F001100B6
:1000A0001F001100030001001F001F0004001B00BF
:1000B0001F00010001001F0008001F001F001000AA
:1000C0000F001F0011001F001F0014001C001C0067
:1000D00014001F001F0016001D001D001500170052
:1000E00010001F0010001F0001001F001E00010073
:1000F0001E001F0002001F001B0004001B001C004C
:1001000007001C001300150019000100000000008A
:1001100000000A0000001800000000001D000000A0
:100120000000100015001C001F0011001F0000003F
:1001300000001F00170015001D00110015001F0012
:100140001C0004001F001D00150017001F001500F3
:100150001700100010001F001F0015001F001D00D9
:1001600015001F001F1C1F1E1F1E1F1F1E1F1E1FEE
:1001700000000000230026002900000000002400E9
:1001800027002A0000000000250028002B0004049E
:10019000040404040404020202020202030303032F
:1001A000030301020408102040800102040810200B
:1001B00001020408102000000008000201000003F2
:1001C0000407000000000000000000000000003FE5
:1001D0004848483F7F494949363E414141227F4195
:1001E00041221C7F494949417F484848403E414996
:1001F000492E7F0808087F00417F41000601010168
:100200007E7F081422417F010101017F2010207FA1
:100210007F1008047F3E4141413E7F484848303EC0
:100220004145423D7F484C4A313149494946404069
:100230007F40407E0101017E7C0201027C7F02043E
:10024000027F631408146360100F10604345495126
:1002500061010000000000007000000000140000B8
:100260007F221408003E4549513E00217F010021B4
:100270004345493122414949360C14247F047251C7
:1002800051514E3E4949492640404F5060364949F8
:100290004936324949493E021515150F7F050909AE
:1002A000060E11111102060909057F0E1515150C10
:1002B000083F444020182525253E7F0810100F00D8
:1002C000002F00000201115E007F040611000041B2
:1002D0007F01001F100C100F1F0810100F0E1111BE
:1002E000110E1F141414080814140C1F1F081010EA
:1002F000080915151502107E1101021E0101021FC9
:100300001C0201021C1E0103011E110A040A11181D
:100310000505051E111315191100193A6D7A7A6D2C
:100320003A1900001A3D687C7C683D1A00380D5E61
:10033000361C1C365E0D380E0C5E351C1C355E0CF2
:100340000E19393A6C7A7A6C3A391918393B6C7C47
:100350007C6C3B39180000000000FA1711241FBE06
:10036000CFEFD8E0DEBFCDBF13E0A0E0B1E0EAE020
:10037000F5E302C005900D92A03EB107D9F725E044
:10038000A0EEB3E001C01D92A33DB207E1F711E07A
:10039000CEEAD1E004C02197FE010E94711ACD3A45
:1003A000D107C9F70E94350E0C94831A0C940000F3
:1003B000CF92DF92EF92FF920F931F93CF93DF9331
:1003C0006C017A018B01C0E0D0E0CE15DF0581F031
:1003D000D8016D918D01D601ED91FC910190F081D4
:1003E000E02DC6010995892B11F02196EECF7E01F3
:1003F000C701DF91CF911F910F91FF90EF90DF9098
:10040000CF900895FC01538D448D252F30E0842F2B
:1004100090E0821B930B541710F0CF96089501972C
:100420000895FC01918D828D981761F0828DDF0116
:10043000A80FB11D5D968C91928D9F5F9F73928FD7
:1004400090E008958FEF9FEF0895FC01918D828DCC
:10045000981731F0828DE80FF11D858D90E0089599
:100460008FEF9FEF0895FC01918D228D892F90E0F1
:10047000805C9F4F821B91098F739927089584EAAE
:1004800094E00E94330221E0892B09F420E0822FBE
:100490000895FC01848DDF01A80FB11DA35ABF4F41
:1004A0002C91848D90E001968F739927848FA68973
:1004B000B7892C93A089B1898C91837080648C93C7
:1004C000938D848D981306C00288F389E02D808176
:1004D0008F7D80830895EF92FF920F931F93CF93A8
:1004E000DF93EC0181E0888F9B8D8C8D981305C084
:1004F000E889F989808185FD26C0F62E0B8D10E0F4
:100500000F5F1F4F0F731127E02E8C8DE8120CC068
:100510000FB607FCFACFE889F989808185FFF5CF0E
:10052000CE010E944902F1CF8B8DFE01E80FF11D33
:10053000E35AFF4FF0829FB7F8940B8FEA89FB894B
:10054000808180620AC09FB7F894EE89FF8960833A
:10055000E889F98980818370806480839FBF81E00E
:1005600090E0DF91CF911F910F91FF90EF90089550
:10057000CF93DF93EC01888D8823C9F0EA89FB894A
:10058000808185FD05C0A889B9898C9186FD0FC041
:100590000FB607FCF5CF808185FFF2CFA889B98916
:1005A0008C9185FFEDCFCE010E944902E7CFDF910C
:1005B000CF91089580E090E0892B29F00E943F02BE
:1005C00081110C940000089585ED8093BC0080910A
:1005D000BC0084FDFCCF10927F040895409110046C
:1005E000262F30E0240F311D21323105DCF420911B
:1005F0007F042430C9F4FC0180E090E0861758F4B1
:10060000309110042191DC01A051BC4FA30FB11D0A
:100610002C930196F3CF80911004680F609310041F
:1006200080E0089581E0089582E008950895089596
:100630000895E091380480913704E81730F4F0E031
:10064000E75CFB4F808190E008958FEF9FEF089566
:100650009091380480913704981750F4E92FF0E016
:10066000E75CFB4F208130E09F5F9093380402C02D
:100670002FEF3FEFC90108958091370490E020915A
:100680003804821B91090895CF92DF92EF92FF9276
:100690000F931F93CF93DF937C01CB018A012091AD
:1006A0008004222389F0EB016B01C40ED51ECC150A
:1006B000DD0569F06991D701ED91FC910190F08120
:1006C000E02DC7010995F3CF642F0E94EE02C80107
:1006D000DF91CF911F910F91FF90EF90DF90CF901E
:1006E0000895CF93DF931F92CDB7DEB76983209132
:1006F00080042223D1F02091A304203240F021E095
:1007000030E0FC013383228380E090E015C08091CB
:100710008104E82FF0E0EE57FB4F998190838F5FC3
:10072000809381048093A30405C061E0CE0101960B
:100730000E94EE0281E090E00F90DF91CF9108954A
:10074000089580E090E008950E94771A1F920F921A
:100750000FB60F9211242F933F934F935F936F9394
:100760007F938F939F93AF93BF93EF93FF9384EA0D
:1007700094E00E944902FF91EF91BF91AF919F9148
:100780008F917F916F915F914F913F912F910F903A
:100790000FBE0F901F9018951F920F920FB60F92D9
:1007A00011242F938F939F93EF93FF93E091B404C1
:1007B000F091B5048081E091BA04F091BB0482FD10
:1007C00012C090818091BD048F5F8F732091BE0411
:1007D000821751F0E091BD04F0E0EC55FB4F958F8E
:1007E0008093BD0401C08081FF91EF919F918F9113
:1007F0002F910F900FBE0F901F9018950F931F937E
:10080000CF93DF93EC018A8180FF02C0826001C038
:100810008D7F8A83288130E0F901EA54FE4F84916C
:10082000F901EE55FE4F0491F901E257FE4F149184
:100830001123A1F081110E94240CE12FF0E0EE0FB2
:10084000FF1FE059FE4FA591B491EC91E02391E098
:1008500080E009F490E0292F382F02C020E030E03A
:10086000498150E08A814217530711F48E7F01C0FD
:1008700081608A838A81282F30E0A90155954795A8
:100880002427352720FF30C080FF1AC08F85988924
:100890000196988B8F87EF81F885309711F0CE0104
:1008A00009952FB7F8948091CA059091CB05A09136
:1008B000CC05B091CD052FBF9C838B83198A10C0C6
:1008C000E985FA85309711F0CE010995EB85FC8515
:1008D000309711F0CE0109958FEF9FEF9C838B83AA
:1008E0008A8184608A832BC08B7F8A838B819C81E1
:1008F000019629F18989811122C08FB7F89440911E
:10090000CA055091CB056091CC057091CD058FBF84
:100910008B819C81481B590B610971098D819E81D6
:10092000A0E0B0E084179507A607B70740F4ED856F
:10093000FE85309721F0CE01099581E0898B8A816F
:100940008170DF91CF911F910F910895CF93DF9325
:10095000EC010E94FE03882321F08A8182FB882714
:1009600080F9DF91CF910895FC01908190539A30E6
:1009700008F090E0818180532AE0929F800D11243D
:1009800008951F920F920FB60F9211242F933F9349
:100990004F935F936F937F938F939F93AF93BF9387
:1009A000EF93FF938091B900887F803609F49CC053
:1009B00068F5883209F45BC090F4803109F454C0C2
:1009C00038F4882309F4F6C0883009F44DC0F6C025
:1009D000883109F44CC0803209F45DC0EFC0803426
:1009E00009F468C048F4803309F455C0883309F02D
:1009F000E5C080937D04D8C0803509F44FC08835A8
:100A000009F45DC0883409F0D9C0D6C0883909F42A
:100A1000C7C0A8F4883709F467C038F4883609F4E9
:100A200063C0803709F460C0C9C0883809F4B8C011
:100A3000803909F45FC0803809F0C0C05BC0803BDA
:100A400009F486C038F4803A09F466C0883A09F49B
:100A50007FC0B4C0803C09F4A7C0883C09F4A4C09E
:100A6000883B09F48AC0AAC080915A0410C09091B2
:100A70007C0480917B04981770F5E0917C0481E000
:100A80008E0F80937C04F0E0E55AFB4F80818093C9
:100A9000BB0085EC86C080937D048EC0E0917C0411
:100AA00081E08E0F80937C048091BB00F0E0E55ADA
:100AB000FB4F808390917C0480917B046EC0E09119
:100AC0007C0481E08E0F80937C048091BB00F0E079
:100AD000E55AFB4F808380917E0481116DC081E0D7
:100AE0008093590484EA61C083E080937F0410926C
:100AF0003204CFCF80913204803208F051C0E091AF
:100B0000320481E08E0F809332048091BB00F0E0CC
:100B1000EE5EFB4F8083BDCF85EC8093BC001092CE
:100B20007F0480913204803230F4E0913204F0E0AE
:100B3000EE5EFB4F10826091320470E0E09133046E
:100B4000F091340482E194E009951092320436C0A9
:100B500084E080937F041092110410921004E091BD
:100B60003504F0913604099580911004811105C077
:100B700081E0809310041092F003E091110481E071
:100B80008E0F80931104F0E0E051FC4F8081809340
:100B9000BB009091110480911004981708F479CF4C
:100BA00085E88093BC000AC085EC8093BC0010925D
:100BB0007F0404C010927D040E94E402FF91EF9133
:100BC000BF91AF919F918F917F916F915F914F9165
:100BD0003F912F910F900FBE0F901F901895EF929D
:100BE000FF920F931F93CF93DF9381E08093800454
:100BF00088E68093A204109281041092A30460E01E
:100C000081E495E00E94710381E00E94890A87E0F7
:100C100090E00E94640B81E495E00E9428038F77A6
:100C2000982F92959F700AEFC82F909FC00D1124A6
:100C300081E495E00E9428039C01332794E03595D8
:100C400027959A95E1F7D82F029FD00D112481E4C2
:100C500095E00E9428039C01332744E035952795B1
:100C60004A95E1F7182F029F100D112481E495E0B9
:100C70000E94280381E495E00E942803AC015527D7
:100C800064E0559547956A95E1F7F82E049FF00CBE
:100C9000112481E495E00E9428039C01332774E02D
:100CA000359527957A95E1F7E82E029FE00C1124FF
:100CB00081E495E00E9428039C013327E4E0359508
:100CC0002795EA95E1F7029F800D1124482F50E007
:100CD000BA016053784F7093EE036093ED038E2D4D
:100CE00090E09093EC038093EB032F2D30E0309352
:100CF000EA032093E903E4E6F1E081E08E1530F4A5
:100D00009491290F311D8F5F3196F8CF82E08E15B7
:100D100038F4CA0183709927892B11F42F5F3F4F54
:100D20006D5C77407695679576956795EDE6F1E091
:100D30004E9FC0014F9F900D5E9F900D1124860F16
:100D4000971F0596820F931F67E070E00E94491A73
:100D50009093E8038093E703812F90E09093E6035C
:100D60008093E5038D2F90E09093E4038093E30359
:100D7000D0E0D093E203C093E103DF91CF911F91C4
:100D80000F91FF90EF900895CF930E94EF05C091CF
:100D9000E5030E944E1924E030E040E050E00E945C
:100DA000DA19DC01CB010196A11DB11D6C2F680F72
:100DB0006093EF03683178F00E944E1923E030E031
:100DC00040E050E00E94DA19DC01CB010196A11D40
:100DD000B11D8093EF030E944E1924E030E040E003
:100DE00050E00E94DA1960930201CF91089580913A
:100DF000E003882371F08091EF0390E02091E503F8
:100E00003091E6038217930721F40E94C40680E024
:100E1000089581E0089580E090E00E94E30C81E075
:100E200090E00E94E30C82E090E00E94E30C83E0FB
:100E300090E00C94E30CFF920F931F93CF93DF93FA
:100E4000CDB7DEB763970FB6F894DEBF0FBECDBF48
:100E500080910201809371058AE0E7E1F2E0DE0112
:100E6000119601900D928A95E1F700E010E0FF24C1
:100E7000F3948FE595E00E94A60481111EC081E0E5
:100E8000F81203C01AC000E010E062E370E080E0F6
:100E900090E00E948C0D0F5F1F4FF12C0332110563
:100EA00044F363960FB6F894DEBF0FBECDBFDF915B
:100EB000CF911F910F91FF9008950E940B07F110A1
:100EC00005C0809102018F5F809302018091020131
:100ED000853010F01092020180910201FE013196DE
:100EE000E80FF11DE80FF11D60817181CE010B96B5
:100EF0000E947C1A10E000E0EBE0F0E0EC0FFD1F38
:100F0000E00FF11D6081662309F4BDCF812F0E949F
:100F1000AD0B0F5F1A5FF0CFEF92FF920F931F930D
:100F2000CF93DF93C0910001CC23A9F000E010E043
:100F3000EC2EF12CB701C8010E94490D0F5F1F4F25
:100F400004301105B9F76EE170E080E090E00E9496
:100F50008C0DC150E9CF0E940B07C0E0D0E060913A
:100F6000000170E0CE010E94490D2196C430D105E8
:100F7000B1F7DF91CF911F910F91FF90EF900895FE
:100F8000342F98EF980F983018F4892F92E001C011
:100F900093E020EF280F283010F4822F91E028EE04
:100FA000280F283010F4822F90E0482F50E070E096
:100FB000892F90E0313011F421E001C020E00C9441
:100FC0000D0D7F928F929F92AF92BF92CF92DF9240
:100FD000EF92FF920F931F93CF93DF93E62E942F00
:100FE0009F7D91549A3110F44F711DC090ED940F74
:100FF0009A3010F4405117C0403261F04E3261F027
:101000004A3361F0473261F0413261F04F3359F4B5
:101010004FE109C040E007C04BE105C04CE103C00F
:101020004DE101C04EE196E04902E0011124F82EA5
:10103000C12CD12C80E1A82EB12CFE01EC0DFD1DA0
:10104000E859FF4FE4917E2C812C912C0E2F10E05B
:10105000C501082C02C0959587950A94E2F7802374
:101060009123892B11F041E001C040E0672D8F2DC5
:101070000E94C0078FEF881A980A739495E089162A
:10108000910431F782E0C80ED11CF39496E0C916A2
:10109000D10499F6DF91CF911F910F91FF90EF90BE
:1010A000DF90CF90BF90AF909F908F907F900895EA
:1010B0009F92AF92BF92CF92DF92EF92FF920F93E7
:1010C0001F93CF93DF93CDB7DEB7CB56D1090FB6C1
:1010D000F894DEBF0FBECDBFB82E8B01E42E952E47
:1010E00069010E940B079E012F5F3F4F86E6D901E1
:1010F0001D928A95E9F789E0E1E2F2E0D9010190D9
:101100000D928A95E1F788E0FE013A96DF01482FBB
:101110001D924A95E9F799E0E2E3F2E0DE0152968A
:1011200001900D929A95E1F7FE017B96DF01482F21
:101130001D924A95E9F7E3E4F2E0DE019396982FD9
:1011400001900D929A95E1F799E0FE01BB96DF01BF
:10115000492F1D924A95E9F7E4E5F2E0DE01D496C5
:10116000492F01900D924A95E1F7FE01FD96DF01AE
:10117000482F1D924A95E9F7E5E6F2E0DE01AB5B08
:10118000BF4F01900D929A95E1F7E5E4F0E0EC0F86
:10119000FD1F3996DF011D928A95E9F7F12CF901BF
:1011A00041E1B49EE00DF11D11245F01F501EF0D49
:1011B000F11D4081442341F061E08F2D880F880F9D
:1011C0000E94E107F394F2CF60ED77E080E090E0D9
:1011D0000E948C0D0E940B0785E0EAEDF3E0DE0132
:1011E000A959BF4F01900D928A95E1F74AE0BE01DF
:1011F00069597F4FC8010E94A519A8964FADA897BD
:1012000061E080E00E94E107A9964FADA99761E0F7
:1012100084E00E94E107AA964FADAA9761E088E0BA
:101220000E94E107AB964FADAB9761E08CE00E9466
:10123000E1076CE271E080E090E00E948C0D8FE5A8
:1012400095E00E94A604811138C08DE495E00E94CB
:10125000FE038823A1F30C151D051CF40F5F1F4F1F
:1012600002C00E2D192D4AE0BE0169597F4FC801F9
:101270000E94A519A8964FADA89761E080E00E9452
:10128000E107A9964FADA99761E084E00E94E107CC
:10129000AA964FADAA9761E088E00E94E107AB965D
:1012A0004FADAB9761E08CE00E94E10766E970E02A
:1012B00080E090E00E948C0DC8CFC801C559DF4F77
:1012C0000FB6F894DEBF0FBECDBFDF91CF911F9157
:1012D0000F91FF90EF90DF90CF90BF90AF909F90D5
:1012E0000895AF92BF92CF92DF92EF92FF920F9349
:1012F0001F93CF93DF93CDB7DEB7CF56D1090FB68B
:10130000F894DEBF0FBECDBF0E940B078091E703AC
:101310009091E8030091E903102FF090EB03FA9409
:101320002CE6E6E7F2E0DE01119601900D922A9597
:10133000E1F760E0AC01552779E0879F9001112427
:1013400022513D4F862F90E0F901E80FF91F70817F
:10135000772311F06F5FF6CF01979C01220F331FA7
:10136000220F331F8FE190E0821B930B97FD0196B4
:101370009595879599E0949F6001959FD00C1124D5
:10138000E82EA12CB12CF501EC0DFD1DE251FD4F15
:101390004081442351F061E08E2D0E94E1078FEFE0
:1013A000A81AB80A94E0E90EEECF68EE73E080E088
:1013B00090E00E948C0D0E948C070E940B074AE06F
:1013C000BE0163597F4F802F90E00E94A519113014
:1013D00069F0153159F01F3149F0123049F01631DA
:1013E00039F0133039F0173139F404C000E005C08A
:1013F00001E003C002E001C003E0AE964FADAE973E
:1014000061E08AE00E94E1071A3050F0AF964FADDC
:10141000AF9761E08EE00E94E10788E098E002C0AB
:1014200084E09AE010E0E92EE80EC801880F991FC9
:10143000080F191F0E511D4FF801408161E08E2DDC
:101440000E94E107F801418161E084E08E0D0E9475
:10145000E10768EE73E080E090E00E948C0D0E944E
:101460008C0720E041E050E04C0F5D1FF9E0FF9E4B
:10147000400D511D1124822F90E0FA01E80FF91F51
:101480003081332311F02F5FF6CF01979C01220F9B
:10149000331F220F331F8FE190E0821B930B97FDC8
:1014A00001969595879529E0F29E60011124182FE9
:1014B000E12CF12CF701EC0DFD1D81E090E08C0F8B
:1014C0009D1FE80FF91F4081442349F061E0812FFF
:1014D0000E94E1079FEFE91AF90A1C5FEBCF68EE63
:1014E00073E080E090E00E948C0D0E948C07C1594F
:1014F000DF4F0FB6F894DEBF0FBECDBFDF91CF91A7
:101500001F910F91FF90EF90DF90CF90BF90AF9021
:101510000895282F3091A304313208F04AC08091F9
:101520007F048111FCCF9091A20442E040937F049C
:1015300020937E042FEF20937D0410927C0430933F
:101540007B04E2E8F4E0ABE5B4E020E0321721F000
:1015500041914D932F5FFACF10925A0420915A0473
:10156000990F922B90935A0490915904913061F401
:101570001092590490915A049093BB009091BC0032
:1015800093FDF8CF95EC01C095EE9093BC0090913F
:101590007F049230E1F390917D049F3F79F0809138
:1015A0007D04803241F080917D04803331F084E00D
:1015B00005C081E003C082E001C083E01092810495
:1015C0001092A3041092800408950F931F93CF9359
:1015D0008C0181E08093800488E68093A2041092BD
:1015E00081041092A30460E081E495E00E947103FD
:1015F000F8012581CAE0822F6C2F0E943D1A682FC6
:10160000660F860F880F682F620F81E495E00E94B5
:101610007103F8012481822F6C2F0E943D1A682FDC
:10162000660F860F880F682F620F81E495E00E9495
:101630007103F8012381822F6C2F0E943D1A682FBD
:10164000660F860F880F682F620F81E495E00E9475
:10165000710360E081E495E00E947103F80122814A
:10166000822F6C2F0E943D1A682F660F860F880FFD
:10167000682F620F81E495E00E947103F8012181D7
:10168000822F6C2F0E943D1A682F660F860F880FDD
:10169000682F620F81E495E00E947103F8012081B8
:1016A000822F6C2F0E943D1A682F660F860F880FBD
:1016B000682F620F81E495E00E94710381E0CF9171
:1016C0001F910F910C94890A90917F049111FCCF86
:1016D000982F813208F090E281E080937F0480931C
:1016E0007E042FEF20937D0410927C04290F209319
:1016F0007B0480935A0480915A04806D80935A042D
:1017000080915904813061F41092590480915A04F7
:101710008093BB008091BC0083FDF8CF85EC01C0B5
:1017200085EE8093BC0080917F048130E1F380914D
:101730007C04891710F490917C04EBE5F4E0A9E3B4
:10174000B4E080E0891721F021912D938F5FFACFCB
:10175000109238048093370408958F929F92AF922D
:10176000BF92CF92DF92FF920F931F93CF93DF939D
:101770009FEB960F9A3110F46F7125C09FE9960F79
:101780009A3110F468531FC090ED960F9A3010F400
:10179000615119C0603271F06E3271F0673271F0D0
:1017A0006A3371F06E3371F090E5960F9E3058F405
:1017B000619509C060E007C06BE105C06CE103C042
:1017C0006DE101C06EE195E06902E0011124F82E9F
:1017D000C12CD12C80E4A82EB12CFE01EC0DFD1DF6
:1017E000E653FE4FE491812C912C0E2F10E0C501A1
:1017F000082C02C0959587950A94E2F780239123DF
:10180000892B11F041E001C040E0682D8F2D0E942E
:10181000C0078FEF881A980A97E08916910439F764
:101820008FEFC81AD80AF39495E0C916D104A9F627
:10183000DF91CF911F910F91FF90DF90CF90BF90DC
:10184000AF909F908F900895833081F028F481307D
:1018500099F08230A1F008958730A9F08830B9F06E
:101860008430D1F4809180008F7D03C0809180000E
:101870008F7780938000089584B58F7702C084B5F8
:101880008F7D84BD08958091B0008F7703C08091D3
:10189000B0008F7D8093B00008951F93CF93DF93A6
:1018A000282F30E0F901EA54FE4F8491F901EE55FA
:1018B000FE4FD491F901E257FE4FC491CC23C1F001
:1018C000162F81110E94240CEC2FF0E0EE0FFF1F69
:1018D000EC57FE4FA591B4919FB7F894111104C035
:1018E0008C91D095D82302C0EC91DE2BDC939FBF66
:1018F000DF91CF911F910895AF92BF92CF92DF9267
:10190000EF92FF920F931F93CF93DF9300D0CDB749
:10191000DEB769834A83880F991F0091C80510912B
:10192000C905000F111FE2E7F5E09F01225735407E
:101930002017310714F41192F8CF2981FC01EE58D9
:10194000FA4F21838A81808360E08091C6050E94DE
:101950004D0C1016110634F501501109F801EE581E
:10196000FA4FC080B090C405A090C20587E0E82E71
:10197000F12CD12CB6010E2C02C0759567950A94F6
:10198000E2F761708A2D0E944D0C61E08B2D0E9460
:101990004D0C60E08B2D0E944D0C81E0E81AF1089F
:1019A00048F7D7CF61E08091C6050F900F90DF9187
:1019B000CF911F910F91FF90EF90DF90CF90BF904C
:1019C000AF900C944D0CEF92FF921F93CF93DF9347
:1019D00097FD1DC02091C8053091C9058217930756
:1019E000B4F4EC0123E0880F991F2A95E1F79C01DC
:1019F0002E573A4F790111E0F70111927F0140E033
:101A0000612FCE010E947C0C1F5F1930A9F7DF9176
:101A1000CF911F91FF90EF900895CF93DF9397FDA3
:101A200035C0E091C805F091C9058E179F0774F580
:101A30006830710558F54830510540F5DC0133E058
:101A4000AA0FBB1F3A95E1F7E0E8F0E0EF0102C012
:101A5000D595C7954A95E2F7AE01FB01EA0FFB1F4A
:101A6000EE58FA4F222319F02089422B03C04095EB
:101A700020894223408BAE58BA4FA60FB71F6F5F25
:101A800050964C91DF91CF910C947C0CDF91CF91CB
:101A9000089597FD0EC02091C8053091C9058217A1
:101AA00093073CF46031710520F4462F6AE00C94F2
:101AB0007C0C08951092380410923704109281041F
:101AC0001092A30410927F0481E080937E04109210
:101AD000590461E082E10E944D0C61E083E10E94C3
:101AE0004D0CE9EBF0E080818E7F808380818D7FDB
:101AF000808388E48093B80085E48093BC0086E10D
:101B000093E0909336048093350487E193E09093BB
:101B100034048093330408958F929F92AF92BF92C2
:101B2000CF92DF92EF92FF926B017C010E94C60D73
:101B30004B015C01C114D104E104F104F1F00E94F5
:101B4000C60DDC01CB0188199909AA09BB09883E99
:101B50009340A105B10570F321E0C21AD108E10854
:101B6000F10888EE880E83E0981EA11CB11CC114F8
:101B7000D104E104F10419F7DDCFFF90EF90DF907D
:101B8000CF90BF90AF909F908F9008953FB7F894FB
:101B90008091CF059091D005A091D105B091D2054B
:101BA00026B5A89B05C02F3F19F00196A11DB11DB8
:101BB0003FBFBA2FA92F982F8827820F911DA11DF3
:101BC000B11DBC01CD0142E0660F771F881F991F30
:101BD0004A95D1F708951F920F920FB60F921124D4
:101BE0002F933F938F939F93AF93BF938091CA0599
:101BF0009091CB05A091CC05B091CD053091CE054B
:101C000023E0230F2D3720F40196A11DB11D05C03F
:101C100026E8230F0296A11DB11D2093CE058093C7
:101C2000CA059093CB05A093CC05B093CD058091C8
:101C3000CF059091D005A091D105B091D205019624
:101C4000A11DB11D8093CF059093D005A093D10520
:101C5000B093D205BF91AF919F918F913F912F91FA
:101C60000F900FBE0F901F901895CF93DF93CDB7B5
:101C7000DEB7C850D1400FB6F894DEBF0FBECDBF5F
:101C8000789484B5826084BD84B5816084BD85B557
:101C9000826085BD85B5816085BD80916E00816063
:101CA00080936E0010928100809181008260809309
:101CB000810080918100816080938100809180000B
:101CC0008160809380008091B10084608093B10036
:101CD0008091B00081608093B00080917A00846030
:101CE00080937A0080917A00826080937A0080915C
:101CF0007A00816080937A0080917A008068809376
:101D00007A001092C10061E082E00E944D0C61E017
:101D100083E00E944D0C61E084E00E944D0CE09154
:101D2000B404F091B50482E08083E091B004F091B6
:101D3000B1041082E091B204F091B3048FEC80837F
:101D40001092BC04E091B804F091B90486E080835D
:101D5000E091B604F091B704808180618083E091C6
:101D6000B604F091B704808188608083E091B60466
:101D7000F091B704808180688083E091B604F0918F
:101D8000B70480818F7D8083E090C805F090C905FD
:101D900000E010E00E151F05D4F417FD0CC0809173
:101DA000C8059091C905081719072CF441E06CE0AB
:101DB000C8010E947C0C6091000170E0C8010E9483
:101DC000490DC8010E94E30C0F5F1F4FE3CF0E9433
:101DD0005A0D0E945A0D81E08093800488E680931A
:101DE000A204109281041092A30460E081E495E0C3
:101DF0000E94710381E00E94890A81E090E00E94C4
:101E0000640B81E495E00E94280387FF2FC043E123
:101E100050E061E573E084EA94E00E94D80142E07A
:101E200050E065E673E084EA94E00E94D80181E71F
:101E300093E00E94B404898389E08A838CE693E06E
:101E40000E94B4048B8384E793E00E94B4048C83E3
:101E500087E793E00E94B4048D838AE793E00E94B1
:101E6000B4048E83CE0101960E94E50A89E0E1E97F
:101E7000F3E0DE01A154BF4F01900D928A95E1F786
:101E800089E0E7E0F1E0DE01119601900D928A957C
:101E9000E1F710E000E041E0602F812F0E94C007D1
:101EA0000F5F0830C1F71F5F1032A1F764EF71E0D8
:101EB00080E090E00E948C0D0E948C0710E0EFEB18
:101EC000F0E0EC0FFD1FE10FF11D4081442371F0A4
:101ED00061E0812F880F880F0E94E10763E270E0C4
:101EE00080E090E00E948C0D1F5FE9CF6CEB72E008
:101EF00080E090E00E948C0D0E948C0710E0E1E0F1
:101F0000F0E0EC0FFD1FE10FF11D4081442371F063
:101F100061E0812F880F880F0E94E10763E270E083
:101F200080E090E00E948C0D1F5FE9CF6CEB72E0C7
:101F300080E090E00E948C0D0E948C0761E08DE0B3
:101F40000E944D0C80910201823009F4E4C1A0F49A
:101F50008823C9F0813011F00C949317E090E103CD
:101F60000E940B0724E6F22E00E330E2B32E4CE091
:101F7000A42E54EF952EF6C0833009F400C48430AB
:101F800009F428C6D0C70E940B078091E503909101
:101F900001018D3028F02CE0929F8019112406C099
:101FA000811104C08CE0989F802D1124992321F089
:101FB0008A3010F412E001C010E0E12CF12C04E6AC
:101FC00074E6B72EEFE0AE2EF7E06F2EA3E17A2E87
:101FD000B9E18B2E80E3982E9CE0592E24EF422EFF
:101FE0000E94F706882309F4F2C50E94EF058FE5E9
:101FF00095E00E94A6048111EFC38DE495E00E9454
:10200000A6048111C2C18091E1039091E2032B2DBE
:1020100030E02817390791F0B82E41E062E0FA2C41
:10202000F11A8F2D0E94C00741E065E08F2D0E94BC
:10203000C00760E9E62EFF24F39410C0E114F10418
:1020400069F440E062E0DA2CD11A8D2D0E94C007BD
:1020500040E065E08D2D0E94C00703C031E0E31A27
:10206000F108C090E303D090E403802F90E08C153A
:102070009D0509F4B5CF0C2D1091E5031D3030F00E
:1020800080910101849D100D112407C0111105C01C
:1020900010910101159D102D11244AE0BE016F5FC2
:1020A0007F4F812F90E00E94A5191A3018F4898182
:1020B0008A83998280910101882349F01A3038F48B
:1020C000113089F401110FC00E940B070CC01A30A7
:1020D00021F4011102C00E940B07698181E00E9476
:1020E000AD0B10E001C012E06A81862D811B0E94B9
:1020F000AD0B4AE0BE016F5F7F4F8C2D90E00E94D8
:10210000A5190A3018F489818A8399826981872DFB
:10211000811B0E94AD0B6A81882D811B0E94AD0B33
:102120005FCF0E94EF058FE595E00E94A604811124
:1021300053C38DE495E00E94A604811126C110913D
:10214000E1031E1114C0C090E303D090E4038F2D6F
:1021500090E08C159D05F1F562E370E080E090E081
:102160000E948C0D0E94F7068111DBCF30C54AE03A
:10217000BE0161547F4F812F90E00E94A51989E034
:10218000811778F0C154DF4F8881CF5BD040C054B5
:10219000DF4F8883C05CD040C154DF4F0883CF5BE2
:1021A000D0404AE361E084E10E94E107C154DF4F7F
:1021B0004881CF5BD04061E088E10E94E107C054D4
:1021C000DF4F4881C05CD04061E08CE10E94E107B4
:1021D000E12EB9CFFC2C1091E5031D3030F0809139
:1021E0000101899D100D112407C0111105C0109126
:1021F00001011A9D102D11244AE0BE0161547F4F48
:10220000812F90E00E94A5191A30C8F4C154DF4F05
:102210008881CF5BD040C054DF4F8883C05CD04002
:1022200080910101882331F0C154DF4FB882CF5B28
:10223000D04005C0C154DF4F0883CF5BD040C154AC
:10224000DF4F8881CF5BD0408983C054DF4F8881C6
:10225000C05CD0408A838AE38B834AE0BE0161542C
:102260007F4F8C2D90E00E94A51999E09F1578F082
:10227000C154DF4F8881CF5BD040C054DF4F88838B
:10228000C05CD040C154DF4F0883CF5BD040C15405
:10229000DF4F8881CF5BD0408C83C054DF4F888173
:1022A000C05CD0408D838AE38E831091E1034AE0C5
:1022B000BE0161547F4F812F90E00E94A5191A3012
:1022C00078F4C154DF4F8881CF5BD040C054DF4FDA
:1022D0008883C05CD040C154DF4F0883CF5BD040BF
:1022E000C154DF4F8881CF5BD0408F83C054DF4F14
:1022F0008881C05CD0408887DE0111966D0110E0B6
:10230000F60141916F0161E0812F0E94E1071C5F9E
:102310001831B1F721CF7E01F2EEEF0EF11C809162
:10232000120190911301A0911401B0911501F701D0
:1023300080839183A283B3838091160190911701CA
:10234000A0911801B091190189839A83AB83BC8352
:102350000E940B076AE38DE00E94AD0BD090E10371
:102360000D2D10E00E94F706882309F430C40E9466
:10237000EF058FE595E00E94A60481112DC28DE442
:1023800095E00E94A604882319F00E947109CBC52C
:102390008091E1039091E2038017910719F3D82E01
:1023A0002091E5032D3038F080910101FCE08F9FF2
:1023B0002019112408C0211106C0809101012CE0D0
:1023C000829F202D11248091E3039091E403EAE0A1
:1023D000F0E0BF010E945D1AC154DF4F8883CF5BDC
:1023E000D040CB01BF010E945D1AC054DF4F8883EB
:1023F000C05CD0403AE0822F632F0E943D1ACF5339
:10240000DF4F9883C15CD0400E943D1A692ECE53A5
:10241000DF4F9883C25CD0409E012E513F4FCF5F6B
:10242000DE4F39832883C150D140CE0181549F4F64
:10243000C550DF4F99838883CB5FD040DE01119672
:102440001D01B12CCF5FDE4FE881F981C150D14031
:102450009191CF5FDE4FF983E883C150D140C550E1
:10246000DF4FA881B981CB5FD0408D91C550DF4F40
:10247000B983A883CB5FD040981326C0B394BFEF35
:102480002B1A3B0AE4E0BE12DDCFC154DF4F888136
:10249000CF5BD040D7018C93C054DF4F8881C05CA4
:1024A000D04011968C931197CF53DF4F8881C15C38
:1024B000D04012968C931297CE53DF4F8881C25C26
:1024C000D04013968C934CCF00E0292F30E0CB5FA7
:1024D000DE4F39832883C550D140A82FB0E0C95FB3
:1024E000DE4FB983A883C750D14090E2592E4AE00D
:1024F000BE016D507F4FCB5FDE4F88819981C55003
:10250000D1400E94A5194AE0BE0165517F4FC95FC5
:10251000DE4F88819981C750D1400E94A5198091D2
:1025200001018823B1F0B3E0BB1213C0611005C0F4
:10253000C551DF4F5882CB5ED040CB51DF4F8881F1
:10254000C55ED040811105C0CD50DF4F5882C35FBA
:10255000D040C551DF4F1881CB5ED040F101708073
:10256000073040F0AA24AA94A00EF7E0FA1508F06C
:102570007FC08BC0CD50DF4F8881C35FD0409FEBC1
:10258000980F9A3110F48F711FC09FE9980F9A31FC
:1025900010F4885319C090ED980F9A3010F48151BF
:1025A00013C0803251F08E3251F0873251F08A33AD
:1025B00051F08E3349F48EE107C080E005C08BE115
:1025C00003C08CE101C08DE127E0201BC350DF4F29
:1025D0002883CD5FD040E5E08E02D0011124CD5F8D
:1025E000DE4FB983A883C350D140C12C402E4C0C80
:1025F00020E430E00C2C02C0359527950A94E2F7D0
:10260000C150DF4F39832883CF5FD040A72C812C66
:10261000912CCD5FDE4FE881F981C350D140E80DA8
:10262000F91DE653FE4FE491F0E0C150DF4F888181
:102630009981CF5FD040E823F923EF2B11F041E0DF
:1026400001C040E0642D8A2D0E94C0079FEF891AC7
:10265000990AA394A5E08A169104D9F6C394C350AD
:10266000DF4FB881CD5FD040BC1508F0BFCF7ACF27
:10267000C12C40E06A2D872D8C0D0E94C007C394A9
:10268000E5E0CE12F6CF013059F464E170E080E06D
:1026900090E00E948C0D0F5F093009F028CFEECE3C
:1026A0008FEB810F8A3110F41F711FC08FE9810FEA
:1026B0008A3110F4185319C080ED810F8A3010F45C
:1026C000115113C0103251F01E3251F0173251F037
:1026D0001A3351F01E3349F41EE107C010E005C063
:1026E0001BE103C01CE101C01DE188E0A82EA01A77
:1026F00085E0180290011124C350DF4F39832883ED
:10270000CD5FD0401A2D412E4A18A0E4B0E0012E32
:1027100002C0B595A7950A94E2F7C150DF4FB9837F
:10272000A883CF5FD040C72C812C912CC350DF4FA2
:10273000E881F981CD5FD040E80DF91DE653FE4FE9
:10274000E491F0E0C150DF4F28813981CF5FD04064
:10275000E223F323EF2B11F041E001C040E0642DB0
:102760008C2D0E94C0073FEF831A930AC39485E023
:1027700088169104D9F61F5F173029F686CF0E947C
:102780000B078EEBEAE1F1E0DE01119601900D926C
:102790008A95E1F783E2E8EDF1E0DE01A154BF4F55
:1027A00001900D928A95E1F70E94EF0514E6FAE098
:1027B0008F2E912CAAE06A2EB7E04B2E0FE1A02EAF
:1027C000B12C0E94F706882309F401C28FE595E039
:1027D0000E94A604882319F00E941B07A4C38DE45D
:1027E00095E00E94A60481110E9471090E94EF05E4
:1027F000E090E303F090E4035E2CE11609F4F7C0E7
:102800007090E503BCE0B71518F4E4EF7E0E04C049
:10281000711002C0ECE07E2EC701B4010E945D1A67
:102820006C01CB01B4010E945D1A8C01382EF9E0D5
:10283000F51560F1C6010197689EB001699E700DA3
:10284000112421E030E02C0F3D1F620F731FCE01D9
:102850008D509F4F0E947C1A6EE773E0CE01855128
:102860009F4F0E947C1A872D90E00197689EB001CF
:10287000699E700D112481E090E08C0F9D1F680F00
:10288000791F8F519F4F0E947C1A21C09AE05912E4
:102890001EC0BE01655A7F4FCE018D509F4F0E94D2
:1028A0007C1A6DE773E0CE0185519F4F0E947C1A20
:1028B000872D90E00197E89EB001E99E700D1124EC
:1028C000A1E0B0E0AC0FBD1F6A0F7B1F8AC03320B0
:1028D00009F469C0872D90E00197689EB001699E58
:1028E000700D1124C114D10409F442C0E1E0F0E0FC
:1028F000EC0FFD1F6E0F7F1FCE018D509F4F0E946A
:102900007C1AF3E1F51590F0FF2421E0E21AF108BA
:102910006E9CB0016F9C700D112481E090E08C0FD3
:102920009D1F680F791F86519F4F5EC01127015070
:102930001109409EB001419E700D1124AFEBB0E033
:10294000AC0FBD1F6A0F7B1FCE0185519F4F0E94A8
:102950007C1AB1E0CB1AD1086C9CB0016D9C700D53
:102960001124E1E0F0E0EC0FFD1F6E0F7F1F39C076
:1029700021E030E02C0F3D1F620F731FCE018D5000
:102980009F4F0E947C1A112701501109409EB001EF
:10299000419E700D11248FEB90E08C0F9D1F680FEE
:1029A000791F8C961AC0CD2819F5872D90E00197D4
:1029B000689EB001699E700D1124A1E0B0E0AC0FDB
:1029C000BD1F6A0F7B1FCE018D509F4F0E947C1A46
:1029D00063E873E0CE0185519F4F0E947C1A67E641
:1029E00073E0CE018E519F4F0E947C1A01C0512E80
:1029F00020E0822F90E0E3EFF0E0EC0FFD1FE80F06
:102A0000F91F3081332311F02F5FF3CF0197880F27
:102A1000991F880F991FF501E81BF90BCF01F7FDEE
:102A2000019695958795182F00E0E3EFF0E0EC0F05
:102A3000FD1FE00FF11D4081442339F061E0812F3B
:102A40000E94E1070F5F1C5FF0CF08EE13E08FE5F7
:102A500095E00E94A6048111BFCE8DE495E00E940E
:102A6000A60481110E94710961E070E080E090E0AD
:102A70000E948C0D0150110951F70E948C0720E033
:102A8000822F90E0EBEEF0E0EC0FFD1FE80FF91F56
:102A90003081332311F02F5FF3CF0197880F991FF7
:102AA000880F991F9501281B390BC90137FD019625
:102AB00095958795182F00E0EBEEF0E0EC0FFD1FE9
:102AC000E00FF11D4081442339F061E0812F0E9425
:102AD000E1070F5F1C5FF0CF08EE13E08FE595E094
:102AE0000E94A604811178CE8DE495E00E94A60490
:102AF00081110E94710961E070E080E090E00E9425
:102B00008C0D0150110951F70E948C0720E0822F93
:102B100090E0E2EEF0E0EC0FFD1FE80FF91F3081CE
:102B2000332311F02F5FF3CF0197880F991F880F80
:102B3000991FD501A81BB90BCD01B7FD019695953D
:102B40008795182F00E0E2EEF0E0EC0FFD1FE00F9C
:102B5000F11D4081442339F061E0812F0E94E1079B
:102B60000F5F1C5FF0CF08EE13E08FE595E00E9449
:102B7000A604811131CE8DE495E00E94A604811156
:102B80000E94710961E070E080E090E00E948C0D8D
:102B90000150110951F70E948C0708EE13E08FE5F0
:102BA00095E00E94A604811117CE8DE495E00E9465
:102BB000A60481110E94710961E070E080E090E05C
:102BC0000E948C0D0150110951F7152DFACD0E946C
:102BD0008C07A9C18AE0EBEFF1E0DE0111960190CC
:102BE0000D928A95E1F780910101811104C08BE873
:102BF00093E09C838B8310E001E0E12CF12C8FE5C6
:102C000095E00E94A604811192C1013019F48FC190
:102C1000E12CF12C62E370E080E090E00E948C0DEA
:102C2000BFEFEB1AFB0A00E0E3E2EE16F1043CF31F
:102C3000113009F473C0A0F0123009F475C01330DC
:102C400009F06DC10E940B0787E0E5EBF3E0DE01C0
:102C5000A154BF4F01900D928A95E1F710E0DAC0C0
:102C60000E940B0784E0E5E0F2E0DE01AE51BF4FC9
:102C700001900D928A95E1F7E2EEF0E0EC0FFD1F76
:102C8000349685E0DF011D928A95E9F783E0EEE056
:102C9000F2E0DE01A154BF4F01900D928A95E1F759
:102CA00086E0EFEBF0E0EC0FFD1F3396DF011D92A5
:102CB0008A95E9F78091E003882399F01092E00368
:102CC00010E000E0E2EEF0E0EC0FFD1FE00FF11D80
:102CD00060816623E1F0812F0E94AD0B0F5F1A5FC8
:102CE000F1CF81E08093E0030E94C40610E000E091
:102CF000EFEBF0E0EC0FFD1FE00FF11D60816623AC
:102D000031F0812F0E94AD0B0F5F1A5FF1CF6CED98
:102D100075E080E090E00E948C0D01C1809101017E
:102D200018271093010173C00E940B070E94EF0542
:102D30000091E3031091E403E090E503F090E603D3
:102D4000C090EB03D090EC038090ED039090EE03E5
:102D50006091E9037091EA0377272FE130E041E0C9
:102D600050E082E00E945808B82EB60177272CE088
:102D700030E041E050E083E00E945808D82E23E381
:102D800038E04DED57E0B40184E00E945808A82EC9
:102D9000C92EB701772727E130E040E050E081E01D
:102DA0000E945808F82EB80177272BE330E040E066
:102DB00050E080E00E9458082A2D3C2D203DB7E0CD
:102DC0003B0710F0205D3740C154DF4F2883CF5BB5
:102DD000D040C054DF4FD882C05CD040CF53DF4FCB
:102DE000B882C15CD040CE53DF4FF882C25CD04085
:102DF000CD53DF4F8883C35CD040CC53DF4F188264
:102E0000C45CD040CE0181549F4F0E94E50A0E94CD
:102E10000B0785C0812F90E0EFEBF0E0EC0FFD1F7A
:102E2000E80FF91F40814423F9F0019660E0880F14
:102E3000880F0E94E1071F5FEDCF00E010E0B701AF
:102E4000C8010E94490D0F5F1F4F04301105B9F7EB
:102E500066E970E080E090E00E948C0D8DE495E0E2
:102E60000E94FE0381111EC08FE595E00E94A6041A
:102E7000811155C000910001000F0E5F10E0011795
:102E800069F341E066E0812F0E94C00741E067E0FE
:102E9000812F0E94C00741E068E0812F0E94C00797
:102EA0001F5FEDCF809100018F3031F4109200014F
:102EB0000E940B0710E004C08F5F80930001FACFDF
:102EC000812F90E0EFEBF0E0EC0FFD1FE80FF91F12
:102ED0004081442341F0019660E0880F880F0E94F2
:102EE000E1071F5FEDCFE0900001F12CC7010196D3
:102EF000082F000F10E0011709F49FCF41E066E0B2
:102F0000812F0E94C00741E067E0812F0E94C00727
:102F100041E068E0812F0E94C0071F5FECCF8091E5
:102F20007105809302010E94DA020C94A20F0E94A4
:102F30000B07011101C01F5F153008F010E0FE0102
:102F40003196E10FF11DE10FF11D60817181CE011C
:102F500081549F4F0E947C1A00E0F12CEFEBF0E0CF
:102F6000EC0FFD1FEF0DF11D6081662309F450CEBB
:102F7000802F0E94AD0BF3940A5FF0CFCF93DF93C5
:102F800090E0FC01EE55FE4F2491FC01E257FE4F0C
:102F90008491882361F190E0880F991FFC01E65825
:102FA000FE4FC591D491FC01EC57FE4FA591B49111
:102FB000611109C09FB7F894888120958223888386
:102FC000EC912E230BC0623061F49FB7F894888196
:102FD000322F309583238883EC912E2B2C939FBF27
:102FE00006C08FB7F894E8812E2B28838FBFDF911E
:102FF000CF910895CF93DF931092A7041092A60467
:1030000088EE93E0A0E0B0E08093A8049093A90438
:10301000A093AA04B093AB0421E333E03093A5045A
:103020002093A40425EC30E03093B1042093B00445
:1030300024EC30E03093B3042093B20420EC30E071
:103040003093B5042093B40421EC30E03093B704FE
:103050002093B60422EC30E03093B9042093B804F6
:1030600026EC30E03093BB042093BA041092BD04E8
:103070001092BE041092BF041092C0041092440536
:10308000109243058093450590934605A09347050C
:10309000B093480583E493E0909342058093410503
:1030A000CCE0D0E0D093C305C093C2058BE090E0A4
:1030B0009093C5058093C4058AE090E09093C7057E
:1030C0008093C60584E090E09093C9058093C8057D
:1030D00061E08CE00E94BE1761E08091C4050E940F
:1030E000BE1761E08091C6050E94BE1761E0809125
:1030F000C6050E944D0CD093C305C093C205E2E8FB
:10310000F5E082EC95E011928E179F07E1F7C0E0A1
:10311000D0E08091C8059091C905C817D9075CF522
:1031200040E06FE0CE010E947C0CD7FD0CC0809186
:10313000C8059091C905C817D9072CF447E06BE082
:10314000CE010E947C0C40E069E0CE010E947C0C24
:10315000CE010E94E30CD7FD0CC08091C805909170
:10316000C905C817D9072CF440E06CE0CE010E94D5
:103170007C0C2196CECF809102018093710582E074
:1031800080935F0560E00E94BE17C1E0C0936005B8
:1031900010926105109267051092660510926905FC
:1031A0001092680510926B0510926A0510926D05D9
:1031B00010926C0510926F0510926E05C093700509
:1031C00083E080934D0560E00E94BE17C0934E05DA
:1031D00010924F0510925505109254051092570504
:1031E00010925605109259051092580510925B05E1
:1031F00010925A0510925D0510925C05C0935E0511
:10320000DF91CF9108958F929F92AF92BF92CF920C
:10321000DF92EF92FF92CF93DF93EC016881798187
:103220008A819B81611571058105910521F464E214
:1032300079ED8BE597E02DE133EF41E050E00E941E
:10324000DA1949015A019B01AC01A7EAB1E40E94D5
:10325000F9196B017C01ACEEB4EFA50194010E9459
:10326000071ADC01CB018C0D9D1DAE1DBF1DB7FFE4
:1032700003C00197A109B04888839983AA83BB83BF
:10328000BC01CD019F77DF91CF91FF90EF90DF9050
:10329000CF90BF90AF909F908F9008958F929F9204
:1032A000AF92BF92CF92DF92EF92FF9260910301B3
:1032B00070910401809105019091060161157105DD
:1032C0008105910521F464E279ED8BE597E02DE12C
:1032D00033EF41E050E00E94DA1949015A019B01A5
:1032E000AC01A7EAB1E40E94F9196B017C01ACEED4
:1032F000B4EFA50194010E94071ADC01CB018C0DEB
:103300009D1DAE1DBF1DB7FF03C00197A109B048A9
:103310008093030190930401A0930501B0930601EB
:10332000BC01CD019F77FF90EF90DF90CF90BF90D1
:10333000AF909F908F900895609303017093040164
:1033400080930501909306010895BB274A3031F41C
:10335000992322F4BDE2909581959F4F0C94B11969
:10336000BB27FB015527AA27880F991FAA1FA4175F
:1033700010F0A41B83955051B9F7A05DAA3308F053
:10338000A95DA193009779F7B111B1931192CB0187
:103390000C94CA19DC01FC01672F71917723E1F7C6
:1033A000329704C07C916D9370836291AE17BF0712
:1033B000C8F30895052E97FB1EF400940E94F1199E
:1033C00057FD07D00E940C1A07FC03D04EF40C9452
:1033D000F11950954095309521953F4F4F4F5F4FD4
:1033E000089590958095709561957F4F8F4F9F4F71
:1033F00008950E942E1AA59F900DB49F900DA49F32
:10340000800D911D11240895B7FF0C94F9190E94A5
:10341000F919821B930B0895A1E21A2EAA1BBB1B5C
:10342000FD010DC0AA1FBB1FEE1FFF1FA217B30790
:10343000E407F50720F0A21BB30BE40BF50B661FA6
:10344000771F881F991F1A9469F76095709580956A
:1034500090959B01AC01BD01CF010895A29FB001E1
:10346000B39FC001A39F700D811D1124911DB29FB8
:10347000700D811D1124911D0895991B79E004C0E0
:10348000991F961708F0961B881F7A95C9F78095A3
:103490000895AA1BBB1B51E107C0AA1FBB1FA6179B
:1034A000B70710F0A61BB70B881F991F5A95A9F7ED
:1034B00080959095BC01CD01089597FB072E16F4D9
:1034C000009407D077FD09D00E94491A07FC05D067
:1034D0003EF4909581959F4F0895709561957F4F2B
:1034E0000895EE0FFF1F0590F491E02D099481E0FF
:1034F00090E0F8940C94831AFB01DC0101900D928A
:0A3500000020E1F70895F894FFCFD2
:10350A0003010101000000456C656374726F496F25
:10351A00540063636363191307016F6E650000004B
:10352A000000000074776F0000000000000074685B
:10353A007265650000000000666F75720000000089
:10354A000000666976650000000000007369780073
:10355A00000000000000736576656E000000000040
:10356A00656967687400000000006E696E65000096
:10357A000000000074656E00000000000000656C29
:10358A006576656E000000007477656C76650000EC
:10359A000000746869727465656E0000666F757202
:1035AA007465656E00006669667465656E00000084
:1035BA007369787465656E000000736576656E746C
:1035CA0065656E00656967687465656E00006E6999
:1035DA006E657465656E000074656E0000000074A7
:1035EA0077656E74790074686972747900666F72AF
:1035FA0074790000666966747900009A03A003A6CC
:10360A0003AA03B0034F66660000000000004F6E75
:10361A0000000000000000BC03C203C803CE03D4AC
:10362A0003536574204D696E7300000000000000AA
:10363A00000053657420486F757200000000000096
:10364A000000005365742044617900000000000006
:10365A0000000000536574204D6E7468000000007D
:10366A000000000000536574205965617200000073
:10367A000000000000004A616E7561727900004620
:10368A0065627275617279004D617263680000004B
:10369A0000417072696C000000004D617900000001
:1036AA000000004A756E6500000000004A756C79DA
:1036BA0000000000004175677573740000005365CF
:1036CA00707400000000004F63746F62657200003E
:1036DA004E6F76656D62657200446563656D6265FD
:1036EA0072007374006E640072640074680053752B
:1036FA006E6461790000004D6F6E646179000000AC
:10370A0054756573646179000057656400000000B0
:10371A000000546875727364617900467269646165
:10372A0079000000536174757264617900000000C9
:10373A00006B02D8010202B802330211022502000C
:10374A0000000071034403A10318033C0328031972
:10375A0003525443206973204E4F542072756E6E83
:10376A00696E6721000D0A005365702020362032E9
:10377A003031390031393A32303A3532002050414D
:10378A005354004F27434C4F434B00313220487269
:10379A00005665727320312E3600526E646F6D00CA
:1037AA0032342048720053657400427267687400AC
:1037BA004578697400427269676874004261736986
:1037CA006300536D616C6C00536C69646500576FDC
:1037DA007264730053657475700020202020000005
:107800000C94343C0C94513C0C94513C0C94513CE1
:107810000C94513C0C94513C0C94513C0C94513CB4
:107820000C94513C0C94513C0C94513C0C94513CA4
:107830000C94513C0C94513C0C94513C0C94513C94
:107840000C94513C0C94513C0C94513C0C94513C84
:107850000C94513C0C94513C0C94513C0C94513C74
:107860000C94513C0C94513C11241FBECFEFD8E036
:10787000DEBFCDBF11E0A0E0B1E0ECE9FFE702C060
:1078800005900D92A230B107D9F712E0A2E0B1E065
:1078900001C01D92AD30B107E1F70E942D3D0C945F
:1078A000CC3F0C94003C982F959595959595959582
:1078B000905D8F708A307CF0282F295A8091C0000B
:1078C00085FFFCCF9093C6008091C00085FFFCCF60
:1078D0002093C6000895282F205DF0CF982F809127
:1078E000C00085FFFCCF9093C6000895EF92FF92F1
:1078F0000F931F93EE24FF2487018091C00087FD22
:1079000017C00894E11CF11C011D111D81E4E8164B
:1079100082E4F8068FE0080780E0180770F3E09132
:107920000401F091050109958091C00087FFE9CF1E
:107930008091C6001F910F91FF90EF9008950E94D3
:10794000763C982F8091C00085FFFCCF9093C600B5
:1079500091362CF490330CF09053892F089597555D
:10796000892F08951F930E949F3C182F0E949F3CCF
:107970001295107F810F1F9108951F93182F882350
:1079800021F00E94763C1150E1F71F9108951F935A
:10799000182F0E94763C803249F0809103018F5F5E
:1079A000809303018530C1F01F9108958091C0003C
:1079B00085FFFCCF84E18093C6008091C00085FFE5
:1079C000FCCF1093C6008091C00085FFFCCF80E102
:1079D0008093C6001F910895E0910401F091050184
:1079E00009951F9108950E94763C803241F0809164
:1079F00003018F5F80930301853081F008958091AA
:107A0000C00085FFFCCF84E18093C6008091C00058
:107A100085FFFCCF80E18093C6000895E0910401CA
:107A2000F09105010995089540E951E08823A1F0FE
:107A30002D9A28EE33E0FA013197F1F721503040CA
:107A4000D1F72D9828EE33E0FA013197F1F7215064
:107A50003040D1F7815061F708953F924F925F9285
:107A60006F927F928F929F92AF92BF92CF92DF924E
:107A7000EF92FF920F931F93CF93DF93000080E16B
:107A80008093C4001092C50088E18093C10086E015
:107A90008093C2005098589A259A81E00E94143D24
:107AA00024E1F22E9EE1E92E85E9D82E0FE0C02ECA
:107AB00010E1B12EAA24A394B1E49B2EA6E58A2E50
:107AC000F2E57F2EE0E26E2E79E4572E63E5462E36
:107AD00050E5352E0E94763C8033B1F18133B9F107
:107AE000803409F46FC0813409F476C0823409F41B
:107AF00085C0853409F488C0803531F1823521F1A3
:107B0000813511F1853509F485C0863509F48DC0BC
:107B1000843609F496C0843709F403C1853709F423
:107B200072C1863709F466C0809103018F5F80932C
:107B30000301853079F6E0910401F0910501099582
:107B40000E94763C803351F60E94F33CC3CF0E94E2
:107B5000763C803249F78091C00085FFFCCFF092DF
:107B6000C6008091C00085FFFCCF9092C600809136
:107B7000C00085FFFCCF8092C6008091C00085FFC9
:107B8000FCCF7092C6008091C00085FFFCCF609250
:107B9000C6008091C00085FFFCCF5092C600809146
:107BA000C00085FFFCCF4092C6008091C00085FFD9
:107BB000FCCF3092C6008091C00085FFFCCFB09210
:107BC000C60088CF0E94763C863808F4BDCF0E945C
:107BD000763C0E94F33C7ECF0E94763C803809F4CC
:107BE0009CC0813809F40BC1823809F43CC1883942
:107BF00009F48FC080E00E94C73C6CCF84E10E94F2
:107C0000BD3C0E94F33C66CF85E00E94BD3C0E94D3
:107C1000F33C60CF0E94763C809306010E94763C44
:107C2000809307010E94F33C55CF0E94763C80333D
:107C300009F41DC183E00E94BD3C80E00E94C73C66
:107C400049CF0E94763C809309020E94763C809343
:107C5000080280910C028E7F80930C020E94763C79
:107C6000853409F415C18091080290910902892B8D
:107C700089F000E010E00E94763CF801E85FFE4FDA
:107C800080830F5F1F4F80910802909109020817AF
:107C9000190788F30E94763C803209F045CF809125
:107CA0000C0280FF01C16091060170910701660F0F
:107CB000771F7093070160930601A0910802B091AD
:107CC00009021097C9F0E8E0F1E09B01AD014E0F09
:107CD0005F1FF999FECF32BD21BD819180BDFA9A17
:107CE000F99A2F5F3F4FE417F50799F76A0F7B1F4B
:107CF00070930701609306018091C00085FFFCCF5F
:107D0000F092C6008091C00085FFFCCFB092C60003
:107D1000E1CE83E00E94C73CDDCE82E00E94C73CFA
:107D2000D9CE0E94763C809309020E94763C8093D3
:107D300008028091060190910701880F991F909386
:107D40000701809306010E94763C853409F4A6C0A1
:107D500080910C028E7F80930C020E94763C8032D0
:107D600009F0B8CE8091C00085FFFCCFF092C6002C
:107D7000609108027091090261157105B9F140E046
:107D800050E080910C02A82FA170B82FB27011C0E2
:107D9000BB2309F45CC0E0910601F0910701319624
:107DA000F0930701E09306014F5F5F4F46175707B7
:107DB000E8F4AA2369F3F999FECF209106013091E6
:107DC000070132BD21BDF89A90B58091C00085FFB2
:107DD000FCCF9093C6002F5F3F4F30930701209355
:107DE00006014F5F5F4F4617570718F38091C00099
:107DF00085FDE5CE8091C00085FFF8CFE0CE81E023
:107E00000E94C73C67CE0E94763C803209F08CCE3F
:107E10008091C00085FFFCCFF092C6008091C00029
:107E200085FFFCCFE092C6008091C00085FFFCCFAB
:107E3000D092C6008091C00085FFFCCFC092C600E2
:107E40008091C00085FFFCCFB092C60043CEE09188
:107E50000601F091070194918091C00085FFFCCF4D
:107E60009093C6009CCF80E10E94C73C33CE0E9415
:107E7000763C0E94763C182F0E94763C112309F430
:107E800083C0113009F484C08FE00E94C73C22CE29
:107E900080910C02816080930C02E5CE80910C02EF
:107EA000816080930C0259CF809107018823880F4D
:107EB000880B8A2180930B02809106019091070123
:107EC000880F991F90930701809306018091080203
:107ED00080FF09C080910802909109020196909359
:107EE000090280930802F894F999FECF1127E091D6
:107EF0000601F0910701C8E0D1E08091080290915D
:107F00000902103091F40091570001700130D9F34B
:107F100003E000935700E89500915700017001308D
:107F2000D9F301E100935700E89509901990009169
:107F3000570001700130D9F301E000935700E89534
:107F40001395103498F011270091570001700130FB
:107F5000D9F305E000935700E895009157000170B0
:107F60000130D9F301E100935700E895329602976A
:107F700009F0C7CF103011F00296E5CF112480919F
:107F8000C00085FFB9CEBCCE8EE10E94C73CA2CD19
:0C7F900085E90E94C73C9ECDF894FFCF0D
:027F9C00800063
:040000030000780081
:00000001FF
